:100000000C9448000C947C000C947C000C947C00B4
:100010000C947C000C947C000C947C000C947C0070
:100020000C947C000C94F10D0C949A0C0C94C00D63
:100030000C942D0D0C945E0D0C94690C0C94FC0C1E
:100040000C9459090C947C000C9444040C94D30433
:100050000C947C000C947C000C947C000C947C0030
:100060000C948F0D0C94B50E0C94220E0C94530E20
:100070000C94840E0C94CB0C0C9415040C948C04EE
:100080000C947C000C947C000C947C00FB052206F4
:1000900011241FBECFEFD0E1DEBFCDBF88E483BF08
:1000A00084E00E94C70A12BE87B7816087BF789438
:1000B00011E0A0E0B1E0ECE3F4E200E00BBF02C02D
:1000C00007900D92AC3BB107D9F712E0ACEBB1E071
:1000D00001C01D92AB3AB107E1F710E0C0E9D0E0F2
:1000E00004C02297FE010E941812CC38D107C9F72C
:1000F0000E94E60E0C941C120C9400000F931F93A8
:10010000CF93DF93EB018A01CC0FDD1F57FD0CC0AD
:10011000FE01E758FE4F808161E00E943D0ACF5703
:10012000DE4F8881B8010EC0FE01E758FE4F808186
:1001300060E00E943D0ACF57DE4F66277727601B9D
:10014000710B88810E94B20BDF91CF911F910F91AB
:1001500008951F93CF93DF93C0E0D0E0FE01E758EE
:10016000FE4F1081812F61E00E94F409812F61E030
:100170000E943D0AFE01EF57FE4F808160E070E073
:100180000E94B20B2296C830D10541F7DF91CF9182
:100190001F910895FC0110828AE090E0938382838E
:1001A0000895CF93DF93EC01882777FD8095982FF2
:1001B0000E94CB1020E030E044E353E40E94301072
:1001C00020E030E040EF51E40E94571120E030E0A1
:1001D00040E251E40E94CC0F0E949D10CB016A3096
:1001E000710510F48AE090E08932910510F088E200
:1001F00090E09B838A83DF91CF910895E091320153
:10020000E7FD15C0FF27E7FDF095EE0FFF1FE45453
:10021000FE4F0190F081E02D818160E00E943D0A57
:1002200006C02F5F81919191892B69F00EC02091BA
:1002300032012F5FE22FFF27E7FDF0952150EE0FEF
:10024000FF1FE454FE4F273064F320933201E09106
:100250003201FF27E7FDF095EE0FFF1FE454FE4F3C
:100260000190F081E02D309761F48FEF809332019F
:1002700024EF31E08091CD019091CE01281B390B04
:1002800012C0818161E00E943D0AE0913201FF27A6
:10029000E7FDF095EE0FFF1FE454FE4F0190F08153
:1002A000E02D2281338183B5820F83BD8091CD0102
:1002B0009091CE01820F931F9093CE018093CD0138
:1002C000845F914020F01092CE011092CD010895EC
:1002D0000E94DF0A87B78F7787BF85E00E94DA0A1E
:1002E00089E06EEF70E00E94FB0A83B58C5083BDFD
:1002F00087B7806887BF1092CE011092CD018FEF33
:10030000809332010895CF93DF93EC018091CC016B
:10031000893010F080E03DC06983862F61E00E9443
:10032000F409E881F0E0EE0FFF1FE454FE4F8081F6
:100330009181C817D90761F14091CC01442341F460
:10034000ECEBF1E01192119281E0EC3CF807D1F76F
:10035000ECEBF1E020E030E080819181892B61F4C9
:10036000F901EE0FFF1FE454FE4FD183C0832883B1
:100370004F5F4093CC0106C02F5F3F4F329628302D
:10038000310551F78091CC01813011F40E94680150
:1003900081E0DF91CF910895CF93DF93EC018A81C3
:1003A00060E00E943D0A8D8160E00E946D0A8D81AF
:1003B00060E00E948F0A8B8161E00E943D0A8C817F
:1003C00061E00E943D0A0000000010C08C8160E0E6
:1003D0000E943D0A00000000000000008C8161E0E6
:1003E0000E943D0A00000000000000008D810E9474
:1003F000840A87FDEBCF8C8160E00E943D0ADF918B
:10040000CF910895FF920F931F938C01F62E0E94B7
:10041000CC01F801828161E00E943D0AF8018381EC
:1004200060E00E943D0AF801848161E00E943D0A7B
:10043000F801858161E00E946D0AF80185816F2DC8
:100440000E948F0A0000000000000000F801848173
:1004500060E00E943D0AF801858160E00E946D0A1B
:10046000F80185816FEF0E948F0A1F910F91FF9015
:100470000895EF92FF920F931F93CF93DF937C0128
:10048000042F6115710551F0EB0110E005C0C701A3
:1004900069910E9402021F5F1017C8F3DF91CF918C
:1004A0001F910F91FF90EF900895DF93CF930F92DC
:1004B000CDB7DEB76983BE016F5F7F4F41E00E9419
:1004C00039020F90CF91DF910895FF920F931F9300
:1004D0008C01F62E0E94CC01F801828160E00E941E
:1004E0003D0AF801838160E00E943D0AF8018481A1
:1004F00061E00E943D0AF801858161E00E946D0A79
:10050000F80185816F2D0E948F0A00000000000015
:100510000000F801848160E00E943D0AF8018581B5
:1005200060E00E946D0AF80185816FEF0E948F0ADA
:100530001F910F91FF900895423031F0433031F018
:10054000413029F4605C03C06C5E01C06C5A606885
:100550000E946502089562E00E946502089561E0CC
:100560000E94650208950F931F938C01FC01828104
:1005700060E00E943D0AF801838160E00E943D0A2C
:10058000F801848160E00E943D0AF801828161E007
:100590000E94F409F801838161E00E94F409F801E6
:1005A000848161E00E94F409F801858160E00E9485
:1005B0006D0AF80185816FEF0E948F0A1F910F91DC
:1005C00008950F931F938C010E94B302C80168E342
:1005D0000E946502C80161E00E946502C80166E0F0
:1005E0000E946502C8016CE00E946502C80162E0D9
:1005F0000E946502C80160E80E9465021F910F9188
:1006000008950F93FC018DE891E0918380836283CC
:10061000438324830583CF010E94E1020F91089553
:100620005F926F927F928F929F92AF92BF92CF9282
:10063000DF92EF92FF920F931F93CF93DF93EC0122
:100640003A014B01413482E458078FE0680780E0AB
:1006500078070CF07FC060E874E88EE190E0A401B8
:1006600093010E94FB112150304040405040CA018C
:10067000B90122E030E040E050E00E94FB11590156
:100680006A01A6019501209530954095509594E01A
:10069000220F331F441F551F9A95D1F760E074E273
:1006A00084EF90E00E94FB11CA01B9012FEF30E006
:1006B00040E050E00E94BA11A40193010E94FB1196
:1006C000C90181509F4F181619061CF4522E5A94D6
:1006D00003C055245394521A60E079E08DE390E012
:1006E000A40193010E94FB11215030404040504032
:1006F000CA01B90122E030E040E050E00E94FB1165
:10070000209530954095509583E0220F331F441F6C
:10071000551F8A95D1F760E074E284EF90E00E9463
:10072000FB11CA01B9012FEF30E040E050E00E9418
:10073000BA11A40193010E94FB11C90181509F4F7E
:10074000181619061CF4822F815002C081E0821B0A
:100750008515E8F4CA5BDF4FE881F981C654D040C3
:1007600082E0808360E079E08DE390E0A401930172
:100770000E94FB112150304040405040CA01B90155
:1007800022E030E040E050E00E94FB1108C0CA5B6C
:10079000DF4FE881F981C654D04010829501CE5BCD
:1007A000DF4FE991F9913083E881F9812083249624
:1007B000E881F98188E98083DF91CF911F910F91C2
:1007C000FF90EF90DF90CF90BF90AF909F908F9071
:1007D0007F906F905F900895FC0124813581C9015D
:1007E0000895DC01FC0182819381809714F080E000
:1007F0000895FD0182819381019693838283848190
:100800009581E80FF91F60870196FD019583848328
:100810002D913C9111978217930714F481E008956C
:10082000FD011582148281E008951F920F920FB688
:100830000F920BB60F9211242F933F934F935F9318
:100840006F937F938F939F93AF93BF93EF93FF9398
:10085000E0916502F091660260818DE192E00E9474
:10086000F103FF91EF91BF91AF919F918F917F9194
:100870006F915F914F913F912F910F900BBE0F9011
:100880000FBE0F901F9018951F920F920FB60F92E8
:100890000BB60F9211242F933F934F935F936F9357
:1008A0007F938F939F93AF93BF93EF93FF93E091C9
:1008B0001902F0911A02608181ED91E00E94F1032A
:1008C000FF91EF91BF91AF919F918F917F916F9128
:1008D0005F914F913F912F910F900BBE0F900FBEE4
:1008E0000F901F901895DC01FC0182819381019784
:1008F0009383828386819781E80FF91F4085019653
:10090000FD01978386832D913C918217930714F004
:1009100017821682842F08951F920F920FB60F929E
:100920000BB60F9211240F931F932F933F934F9366
:100930005F936F937F938F939F93AF93BF93EF9347
:10094000FF9380914702909148021816190654F4BB
:10095000009165021091660285E492E00E947304A2
:10096000F80180838091470290914802892B31F4ED
:10097000E0916302F091640288E98083FF91EF9136
:10098000BF91AF919F918F917F916F915F914F91A7
:100990003F912F911F910F910F900BBE0F900FBEA3
:1009A0000F901F9018951F920F920FB60F920BB6D3
:1009B0000F9211240F931F932F933F934F935F93A5
:1009C0006F937F938F939F93AF93BF93EF93FF9317
:1009D0008091FB019091FC011816190654F40091C6
:1009E000190210911A0289EF91E00E947304F80134
:1009F00080838091FB019091FC01892B31F4E0917F
:100A00001702F091180288E98083FF91EF91BF915E
:100A1000AF919F918F917F916F915F914F913F9196
:100A20002F911F910F910F900BBE0F900FBE0F9043
:100A30001F901895DC01FC018281938101979383BB
:100A4000828386819781E80FF91F40850196FD0119
:100A5000978386832D913C918217930714F0178218
:100A60001682842F0895FC0184819581892B19F4C5
:100A70002FEF3FEF06C0CF0102960E941A05282FE4
:100A800030E0C9010895CF93DF93EC01EE81FF813F
:100A9000E80FF91F8085DF91CF910895FC018481D3
:100AA0009581892B19F42FEF3FEF06C0CF010296F5
:100AB0000E944305282F30E0C9010895FC011382EC
:100AC000128282819381978386839583848308959C
:100AD00002960E945E050895FC0180E290E09183F9
:100AE0008083CF010E945E050895DC01FC018281B4
:100AF0009381409714F080E00895FD0182819381F5
:100B000001969383828384819581E80FF91F608722
:100B10000196FD01958384832D913C911197821755
:100B2000930714F481E00895FD011582148281E099
:100B30000895CF93DF93EC018CA59DA54097E4F732
:100B4000F894CE018A960E947505C85BDF4FE88154
:100B5000F9818081806280837894DF91CF910895BC
:100B6000FC0113821282828193819783868395830D
:100B700084830895FC0180E190E091838083CF011C
:100B80000E94B00508956F927F928F929F92AF92CC
:100B9000BF92CF92DF92EF92FF920F931F936C015F
:100BA0005B014A013901FC0183E991E08193919352
:100BB000CF010E946C05C6018A960E94BA0582E4A4
:100BC00090E0C80ED91EF601A192B1928192919245
:100BD0006192719201931193F182E0821F910F91C2
:100BE000FF90EF90DF90CF90BF90AF909F908F904D
:100BF0007F906F900895EF92FF920F931F938FEC69
:100C000091E060E970E049E250E02BE230E00AE276
:100C100010E0FCE2EF2EF12C0E94C3058BE192E084
:100C200068E970E049E950E02BE930E00AE910E0BA
:100C3000ECE9EE2EF12C0E94C3051F910F91FF905D
:100C4000EF9008950F9387E692E06AE14BE12CE183
:100C500002E00E9401038DE692E00E94A9008FE667
:100C600092E00E94CA0083E792E00E94CA0087E7F0
:100C700092E00E94CA000F910895AF92BF92CF9266
:100C8000DF92EF92FF920F931F93CF93DF938091A8
:100C900033010E94A30A8C01C0913701D091380121
:100CA000809135010E94A30A40E0209139013091E2
:100CB0003A01281739070CF441E0C017D10754F462
:100CC000442329F010927E0210927D0217C081E029
:100CD00090E010C0442319F08FEF9FEF0BC080917C
:100CE00045019091460197FF03C08BEF9FEF02C033
:100CF00085E090E090937E0280937D02C0917D021A
:100D0000D0917E0280914501909146018C179D07FC
:100D100021F0D0934601C093450160914301709149
:100D20004401882777FD8095982F0E94CB107B0186
:100D30008C018091450190914601BE01681B790BA1
:100D4000882777FD8095982F0E94CB109B01AC01DE
:100D5000C801B7010E9457110E9498107B018C01B5
:100D60006091410170914201882777FD8095982F0D
:100D70000E94CB105B016C01BE01882777FD809536
:100D8000982F0E94CB109B01AC01C601B5010E94B7
:100D900057110E9498106E0D7F1D70938002609312
:100DA0007F022091490130914A01260F371F30936D
:100DB0004C0120934B01253B310534F084EB90E04E
:100DC00090934C0180934B0180914B0190914C0189
:100DD00097FF04C010924C0110924B0160914B019F
:100DE00070914C0183E792E00E94D100DF91CF9196
:100DF0001F910F91FF90EF90DF90CF90BF90AF9039
:100E00000895EF92FF920F931F930DE612E0609109
:100E10007B0270917C024091470150914801C801CA
:100E20000E947E0060913B0170913C01409147011E
:100E300050914801C8010E947E000E943D0607E6CD
:100E400012E0C80160E040E00E949C02C8010E94DC
:100E5000AF02C8010E94AB02C80160E071E00E94CD
:100E6000FF0E88E0E82E81E0F82EC801B7010E944D
:100E7000FF0E809133010E94A30ABC01C8010E94A9
:100E8000C30FC8016AE071E00E94FF0EC801B701FC
:100E90000E94FF0E809135010E94A30ABC01C80187
:100EA0000E94C30FC80160E041E00E949C02C8019B
:100EB00063E171E00E94FF0EC801B7010E94FF0EBE
:100EC00060917F02709180028091490190914A0166
:100ED000680F791FC8010E94C30F1F910F91FF90E7
:100EE000EF900895CF93DF9360913B0170913C01A7
:100EF0008DE692E040E050E00E947E0060917B022F
:100F000070917C028DE692E040E050E00E947E000D
:100F100083E792E06FE170E00E94830160914901F4
:100F200070914A0183E792E00E94D10080E060E086
:100F30000E946D0A81E060E00E946D0A8FEC91E0F2
:100F400040E855E260E070E00E941003C4EBD0E09E
:100F500062E370E080E090E00E94CE096CC062E342
:100F600070E080E090E00E94CE0987E692E060E0C9
:100F700040E00E949C0287E692E00E94AF0287E672
:100F800092E00E94AB0287E692E069E171E00E9484
:100F9000FF0E87E692E068E071E00E94FF0E60912C
:100FA00041017091420187E692E00E94C30FE091F7
:100FB0003D01F0913E01EE0FFF1FE356FE4F808191
:100FC0000E94A30A909342018093410187E692E038
:100FD00068E071E00E94FF0E87E692E060E041E089
:100FE0000E949C0287E692E06CE171E00E94FF0E95
:100FF00087E692E068E071E00E94FF0E6091430195
:101000007091440187E692E00E94C30FE0913F0196
:10101000F0914001EE0FFF1FE356FE4F80810E94CA
:10102000A30A909344018093430182E30E94240A1F
:10103000882309F43BC181E30E94240A882309F034
:101040008ECF62E370E080E090E00E94CE099DC008
:1010500062E370E080E090E00E94CE0987E692E0D3
:1010600060E040E00E949C0287E692E00E94AF02AE
:1010700087E692E00E94AB0287E692E06FE171E0C2
:101080000E94FF0E87E692E068E071E00E94FF0E8A
:10109000E0913D01F0913E01EE0FFF1FE356FE4F40
:1010A00080810E94A30AAA2797FDA095BA2FBC01B0
:1010B000CD010E94CB1020E030E044E353E40E94D5
:1010C000571120E030EC4FE754E40E9430100E94AA
:1010D000981070934A0160934901653B710524F0B3
:1010E000D0934A01C09349018091490190914A01EE
:1010F00097FF04C010924A01109249016091490182
:1011000070914A0187E692E00E94C30F6091490105
:1011100070914A0183E792E00E94D10087E692E055
:1011200060E041E00E949C0287E692E067E271E0A5
:101130000E94FF0E87E692E068E071E00E94FF0ED9
:10114000E0913F01F0914001EE0FFF1FE356FE4F8B
:1011500080810E94A30ABC0187E692E00E94C30F2F
:10116000E0913F01F0914001EE0FFF1FE356FE4F6B
:1011700080810E94A30A909348018093470182E3F3
:101180000E94240A882309F491C081E30E94240A62
:10119000882309F05DCF62E370E080E090E00E9478
:1011A000CE097DC062E370E080E090E00E94CE094D
:1011B00087E692E060E040E00E949C0287E692E0D1
:1011C0000E94AF0287E692E00E94AB0287E692E0BF
:1011D00060E071E00E94FF0E87E692E068E071E057
:1011E0000E94FF0E809133010E94A30ABC0187E692
:1011F00092E00E94C30F87E692E068E071E00E94EF
:10120000FF0EE0913D01F0913E01EE0FFF1FE3560E
:10121000FE4F80810E94A30ABC0190933801809305
:10122000370187E692E00E94C30F87E692E060E014
:1012300041E00E949C0287E692E06AE071E00E9431
:10124000FF0E87E692E068E071E00E94FF0E809159
:1012500035010E94A30ABC0187E692E00E94C30FF9
:1012600087E692E068E071E00E94FF0EE0913F01A6
:10127000F0914001EE0FFF1FE356FE4F80810E9468
:10128000A30ABC0190933A018093390187E692E06A
:101290000E94C30F82E30E94240A882339F081E36D
:1012A0000E94240A882309F453CE7CCFDF91CF918A
:1012B00008951F920F920FB60F9211242F933F9310
:1012C0008F939F93AF93BF938091850290918602F5
:1012D000A0918702B0918802309189020196A11DE8
:1012E000B11D232F2D5F2D3720F02D570196A11D05
:1012F000B11D209389028093850290938602A0936A
:101300008702B09388028091810290918202A0911D
:101310008302B09184020196A11DB11D80938102C8
:1013200090938202A0938302B0938402BF91AF9105
:101330009F918F913F912F910F900FBE0F901F9013
:1013400018956FB7F89420918102309182024091F4
:1013500083025091840282B790E0A0E0B0E006B62C
:1013600000FE09C08F3F9105A105B10521F02F5F57
:101370003F4F4F4F5F4F6FBF542F432F322F2227C6
:10138000280F391F4A1F5B1F82E0220F331F441FA3
:10139000551F8A95D1F7B901CA010895EF92FF92BE
:1013A0000F931F93CF93DF937B018C010E94A109C0
:1013B000EB010EC00E94A1096C1B7D0B685E73409F
:1013C000C8F30894E108F10801091109C851DC4F7C
:1013D000E114F1040105110569F7DF91CF911F9127
:1013E0000F91FF90EF900895E82FE695E695E6952A
:1013F000A82FB0E0613099F42FB7F894F0E0EE0F29
:10140000FF1FE55AFE4F0190F081E02D9081A770FB
:10141000B070A355BE4F8C91982B908313C02FB7FB
:10142000F894F0E0EE0FFF1FE55AFE4F0190F081B7
:10143000E02D9081A770B070A355BE4F8C91809520
:10144000892380832FBF0895A82FE82FE695E6957E
:10145000E695F0E0EE0FFF1FE759FE4F0190F08197
:10146000E02DE081B0E0A770B070A355BE4F8C9125
:10147000E82309F0E1E08E2F0895E82FE695E69540
:10148000E695A82FB0E0613099F42FB7F894F0E01A
:10149000EE0FFF1FE35BFE4F0190F081E02D908186
:1014A000A770B070A355BE4F8C91982B908313C03A
:1014B0002FB7F894F0E0EE0FFF1FE35BFE4F0190B3
:1014C000F081E02D9081A770B070A355BE4F8C9134
:1014D0008095892380832FBF0895E82FF0E0613045
:1014E00051F4EE0FFF1FE55AFE4F0190F081E02D01
:1014F0008FEF80830895EE0FFF1FE55AFE4F019096
:10150000F081E02D10820895E82FF0E0EE0FFF1F2C
:10151000E759FE4F0190F081E02D80810895E82F7A
:10152000F0E0EE0FFF1FE35BFE4F0190F081E02D36
:1015300060830895109261001092620080E487B980
:1015400087EE86B908951F93182F80917701813017
:1015500021F40E949A0A109277018091780118175D
:1015600021F4349A349BFECF0DC01093780187B1DB
:101570001770807E812B87B9349A349BFECF349AC2
:10158000349BFECF24B135B1C9011F91089593B7A3
:10159000987F982B93BF08959EB5987F982B9EBDFA
:1015A000089583E00E94CC0A1DBC1CBC87B78460F0
:1015B00087BF089595B5987F982B95BD089582E0D3
:1015C0000E94DA0A14BC87B7806487BF0895EAE8EE
:1015D000F0E09081987F982B9083089583E00E949B
:1015E000E70A1092890010928800EDE7F0E0808110
:1015F000846080830895803140F4E82FF0E0EE0F9E
:10160000FF1FE557FD4F718360830895893031F4E2
:101610008FB582608FBD8FB58E7F0AC08A3019F476
:101620008FB5826002C08FB58D7F8FBD8FB5816011
:101630008FBD1BBC1ABC19BC18BC1092790010924B
:10164000780008958FB580688FBD8FB58F7B8FBD73
:1016500008958FB580628FBD8FB58F7E8FBD089541
:101660008FB588608FBD8FB58B7F8FBD08959BBD73
:101670008ABD089599BD88BD08959093790080939F
:1016800078000895893049F480918B0082608093BE
:101690008B0080918B008E7F0EC08A3021F4809168
:1016A0008B00826003C080918B008D7F80938B00C4
:1016B00080918B00816080938B0010928700109244
:1016C0008600109285001092840010928300109280
:1016D00082000895EBE8F0E080818068808380815B
:1016E0008F7B80830895EBE8F0E0808180628083C7
:1016F00080818F7E80830895EBE8F0E080818860B0
:10170000808380818B7F80830895853019F40E94C7
:10171000220B0895843019F40E94290B0895833018
:1017200019F40E94300B0895823019F40E946A0B5C
:101730000895813019F40E94730B0895882311F4E1
:101740000E947C0B089590938700809386000895F3
:1017500090938500809384000895909383008093F4
:1017600082000895EF92FF921F93CF93DF93182F7B
:101770007B018D31B0F08F3111F413E014C08E3144
:1017800011F414E010C08D3109F49BC0853211F4BE
:1017900010E03DC0843211F411E039C0833219F4F5
:1017A0008EC08330A0F180918A0286FD0BC00E941A
:1017B000D10A78948AE00E94060B80918A028064A4
:1017C00080938A0280918A02C12FD0E090E0012E9E
:1017D00002C0959587950A94E2F780FD4CC087B3C7
:1017E000FE01EB54FE4F9081892B87BB812F0E9415
:1017F000850B20918A0281E090E0012E02C0880FC3
:10180000991F0A94E2F7282B20938A0234C0809112
:101810008A0287FD0BC00E94EE0A78948AE00E943B
:10182000420B80918A02806880938A0280918A02AA
:10183000C12FD0E090E0012E02C0959587950A94C3
:10184000E2F780FD24C082B1FE01EB54FE4F90818F
:10185000892B82B9812F0E94850B20918A0281E019
:1018600090E0012E02C0880F991F0A94E2F7282BFE
:1018700020938A020CC0153021F4C7010E94370B57
:1018800022C0143021F4C7010E943A0B1CC013304F
:1018900021F4C7010E943D0B16C0123021F4C7018C
:1018A0000E94A30B10C0113021F4C7010E94A80BA5
:1018B0000AC0112341F4C7010E94AD0B04C012E01D
:1018C000A6CF15E070CFDF91CF911F91FF90EF90E1
:1018D00008951F920F920FB60F920BB60F9211241C
:1018E0002F933F934F935F936F937F938F939F9328
:1018F000AF93BF93EF93FF938091910290919202E7
:10190000892B29F0E0919102F09192020995FF91C3
:10191000EF91BF91AF919F918F917F916F915F9167
:101920004F913F912F910F900BBE0F900FBE0F90D4
:101930001F9018951F920F920FB60F920BB60F9231
:1019400011242F933F934F935F936F937F938F93C4
:101950009F93AF93BF93EF93FF9380919B029091DE
:101960009C02892B29F0E0919B02F0919C02099541
:10197000FF91EF91BF91AF919F918F917F916F9167
:101980005F914F913F912F910F900BBE0F900FBE23
:101990000F901F9018951F920F920FB60F920BB6D3
:1019A0000F9211242F933F934F935F936F937F93E5
:1019B0008F939F93AF93BF93EF93FF938091A10277
:1019C0009091A202892B29F0E091A102F091A2024C
:1019D0000995FF91EF91BF91AF919F918F917F9169
:1019E0006F915F914F913F912F910F900BBE0F9090
:1019F0000FBE0F901F9018951F920F920FB60F9267
:101A00000BB60F9211242F933F934F935F936F93D5
:101A10007F938F939F93AF93BF93EF93FF938091A7
:101A20008D0290918E02892B29F0E0918D02F09128
:101A30008E020995FF91EF91BF91AF919F918F9188
:101A40007F916F915F914F913F912F910F900BBEBE
:101A50000F900FBE0F901F9018951F920F920FB608
:101A60000F920BB60F9211242F933F934F935F93D6
:101A70006F937F938F939F93AF93BF93EF93FF9356
:101A80008091930290919402892B29F0E091930226
:101A9000F09194020995FF91EF91BF91AF919F91C1
:101AA0008F917F916F915F914F913F912F910F9007
:101AB0000BBE0F900FBE0F901F9018951F920F92A4
:101AC0000FB60F920BB60F9211242F933F934F93A3
:101AD0005F936F937F938F939F93AF93BF93EF9396
:101AE000FF938091950290919602892B29F0E091C5
:101AF0009502F09196020995FF91EF91BF91AF91F8
:101B00009F918F917F916F915F914F913F912F9115
:101B10000F900BBE0F900FBE0F901F9018951F9245
:101B20000F920FB60F920BB60F9211242F933F9383
:101B30004F935F936F937F938F939F93AF93BF93D5
:101B4000EF93FF938091970290919802892B29F04F
:101B5000E0919702F09198020995FF91EF91BF9162
:101B6000AF919F918F917F916F915F914F913F9135
:101B70002F910F900BBE0F900FBE0F901F901895D6
:101B80001F920F920FB60F920BB60F9211242F9344
:101B90003F934F935F936F937F938F939F93AF93F5
:101BA000BF93EF93FF938091990290919A02892BB2
:101BB00029F0E0919902F0919A020995FF91EF9135
:101BC000BF91AF919F918F917F916F915F914F9155
:101BD0003F912F910F900BBE0F900FBE0F901F9053
:101BE00018951F920F920FB60F920BB60F921124F9
:101BF0002F933F934F935F936F937F938F939F9315
:101C0000AF93BF93EF93FF9380919D0290919E02BB
:101C1000892B29F0E0919D02F0919E020995FF9198
:101C2000EF91BF91AF919F918F917F916F915F9154
:101C30004F913F912F910F900BBE0F900FBE0F90C1
:101C40001F9018951F920F920FB60F920BB60F921E
:101C500011242F933F934F935F936F937F938F93B1
:101C60009F93AF93BF93EF93FF938091A3029091C3
:101C7000A402892B29F0E091A302F091A402099516
:101C8000FF91EF91BF91AF919F918F917F916F9154
:101C90005F914F913F912F910F900BBE0F900FBE10
:101CA0000F901F9018951F920F920FB60F920BB6C0
:101CB0000F9211242F933F934F935F936F937F93D2
:101CC0008F939F93AF93BF93EF93FF938091A50260
:101CD0009091A602892B29F0E091A502F091A6022D
:101CE0000995FF91EF91BF91AF919F918F917F9156
:101CF0006F915F914F913F912F910F900BBE0F907D
:101D00000FBE0F901F9018951F920F920FB60F9253
:101D10000BB60F9211242F933F934F935F936F93C2
:101D20007F938F939F93AF93BF93EF93FF93809194
:101D3000A7029091A802892B29F0E091A702F091C7
:101D4000A8020995FF91EF91BF91AF919F918F915B
:101D50007F916F915F914F913F912F910F900BBEAB
:101D60000F900FBE0F901F9018951F920F920FB6F5
:101D70000F920BB60F9211242F933F934F935F93C3
:101D80006F937F938F939F93AF93BF93EF93FF9343
:101D90008091A9029091AA02892B29F0E091A902D1
:101DA000F091AA020995FF91EF91BF91AF919F9198
:101DB0008F917F916F915F914F913F912F910F90F4
:101DC0000BBE0F900FBE0F901F90189583E061E03F
:101DD0000E946D0A84E061E00E946D0A78940E947E
:101DE00072070E940107FDCFDC01ED91FC9101908B
:101DF000F081E02D099508950E94F40E08950F9347
:101E00001F93CF93DF938C01EB0104C02196C8018F
:101E10000E94FC0E68816623C9F7DF91CF911F9164
:101E20000F9108952F923F924F925F926F927F92FF
:101E30008F929F92AF92BF92CF92DF92EF92FF92DA
:101E40000F931F93DF93CF93CDB7DEB7A0970FB655
:101E5000F894DEBF0FBECDBF1C016A017B014115A6
:101E600051056105710521F460E30E94FC0E4FC02D
:101E7000882499245401422E55246624772401E0B5
:101E800010E00C0F1D1F080D191DC701B601A3019D
:101E900092010E94D911F80160830894811C911C61
:101EA000A11CB11CC701B601A30192010E94D91166
:101EB000C901DA016C017D01C114D104E104F1040E
:101EC000F1F681E0E82EF12CEC0EFD1EE80CF91C79
:101ED0003E010894611C711CD501C4010197A10940
:101EE000B1096C01C818D9080FC0F601EE0DFF1D2D
:101EF00060816A3010F4605D01C0695CC1010E94BC
:101F0000FC0E0894E108F1086E147F0471F7A096A6
:101F10000FB6F894DEBF0FBECDBFCF91DF911F91FA
:101F20000F91FF90EF90DF90CF90BF90AF909F9078
:101F30008F907F906F905F904F903F902F9008957B
:101F4000EF92FF920F931F93CF93DF93EC017A01EF
:101F50008B0177FF0BC06DE20E94FC0E109500957F
:101F6000F094E094E11CF11C011D111DCE01B8019B
:101F7000A7012AE00E94120FDF91CF911F910F91CC
:101F8000FF90EF900895AB01662757FD6095762F7F
:101F90000E94A00F08955058BB27AA270ED04DC10C
:101FA0003ED130F043D120F031F49F3F11F41EF4C4
:101FB00033C10EF4E095E7FB29C1E92F4FD180F33F
:101FC000BA17620773078407950718F071F49EF536
:101FD00067C10EF4E0950B2EBA2FA02D0B01B901AD
:101FE00090010C01CA01A0011124FF27591B99F08F
:101FF000593F50F4503E68F11A16F040A22F232F9B
:10200000342F4427585FF3CF469537952795A795EA
:10201000F0405395C9F77EF41F16BA0B620B730B91
:10202000840BBAF09150A1F0FF0FBB1F661F771F02
:10203000881FC2F70EC0BA0F621F731F841F48F4B7
:10204000879577956795B795F7959E3F08F0B3CF3D
:102050009395880F08F09927EE0F97958795089527
:102060000CD0EBC0E3D040F0DAD030F021F45F3F89
:1020700019F0CCC0511115C1CFC0F0D098F39923FD
:10208000C9F35523B1F3951B550BBB27AA2762173C
:102090007307840738F09F5F5F4F220F331F441F81
:1020A000AA1FA9F333D00E2E3AF0E0E830D09150B9
:1020B0005040E695001CCAF729D0FE2F27D0660FA6
:1020C000771F881FBB1F261737074807AB07B0E8E5
:1020D00009F0BB0B802DBF01FF2793585F4F2AF0FB
:1020E0009E3F510568F092C0DCC05F3FECF3983E24
:1020F000DCF3869577956795B795F7959F5FC9F758
:10210000880F911D9695879597F90895E1E0660FE0
:10211000771F881FBB1F621773078407BA0720F059
:10212000621B730B840BBA0BEE1F88F7E0950895C2
:1021300004D06894B111B5C0089598D088F09F5725
:1021400090F0B92F9927B751A0F0D1F0660F771F03
:10215000881F991F1AF0BA95C9F712C0B13081F0E3
:102160009FD0B1E008959CC0672F782F8827B85F73
:1021700039F0B93FCCF3869577956795B395D9F744
:102180003EF490958095709561957F4F8F4F9F4F4E
:102190000895E89409C097FB3EF49095809570955A
:1021A00061957F4F8F4F9F4F9923A9F0F92F96E9A3
:1021B000BB279395F695879577956795B795F11118
:1021C000F8CFFAF4BB0F11F460FF1BC06F5F7F4FB5
:1021D0008F4F9F4F16C0882311F096E911C07723C7
:1021E00021F09EE8872F762F05C0662371F096E8D0
:1021F000862F70E060E02AF09A95660F771F881F9F
:10220000DAF7880F9695879597F9089597F99F675C
:1022100080E870E060E008959FEF80EC089500246E
:102220000A941616170618060906089500240A943B
:1022300012161306140605060895092E0394000CC1
:1022400011F4882352F0BB0F40F4BF2B11F460FF50
:1022500004C06F5F7F4F8F4F9F4F089557FD905879
:10226000440F551F59F05F3F71F04795880F97FB5A
:10227000991F61F09F3F79F0879508951216130614
:102280001406551FF2CF4695F1DF08C01616170643
:102290001806991FF1CF8695710561050894089578
:1022A000E894BB2766277727CB0197F908950BD0D1
:1022B000C4CFB5DF28F0BADF18F0952309F0A6CF18
:1022C000ABCF1124EECFCADFA0F3959FD1F3950FCA
:1022D00050E0551F629FF001729FBB27F00DB11DAA
:1022E000639FAA27F00DB11DAA1F649F6627B00D3A
:1022F000A11D661F829F2227B00DA11D621F739F23
:10230000B00DA11D621F839FA00D611D221F749F30
:102310003327A00D611D231F849F600D211D822F77
:10232000762F6A2F11249F5750408AF0E1F08823BE
:102330004AF0EE0FFF1FBB1F661F771F881F9150CB
:102340005040A9F79E3F510570F060CFAACF5F3F84
:10235000ECF3983EDCF3869577956795B795F795FE
:10236000E7959F5FC1F7FE2B880F911D9695879586
:1023700097F90895629FD001739FF001829FE00D4D
:10238000F11D649FE00DF11D929FF00D839FF00DF4
:10239000749FF00D659FF00D9927729FB00DE11DA0
:1023A000F91F639FB00DE11DF91FBD01CF0111247D
:1023B0000895A1E21A2EAA1BBB1BFD010DC0AA1F86
:1023C000BB1FEE1FFF1FA217B307E407F50720F09E
:1023D000A21BB30BE40BF50B661F771F881F991F19
:1023E0001A9469F760957095809590959B01AC0162
:1023F000BD01CF01089597FB092E05260ED057FD8C
:1024000004D0D7DF0AD0001C38F4509540953095A1
:1024100021953F4F4F4F5F4F0895F6F79095809568
:10242000709561957F4F8F4F9F4F0895EE0FFF1F5F
:0C2430000590F491E02D0994F894FFCF82
:10243C006C6566745152440020007269676874516F
:10244C00524400536572766F006B50006B44006E03
:10245C0065757472616C006D6F746F725370656525
:10246C006400FF03000200FA00FA000100060007F6
:10247C0000640014000100F4015A005A00320035C7
:10248C00003B003800230062006500310034003A44
:10249C000037002200610064003000330039003640
:1024AC000021002000630001FF18001900260027FE
:1024BC0000050004000100000000000000550200AF
:1024CC000000009905EC034E0533056805FFFFFF7E
:1024DC00FFFFFFFFFFFFFFFFFF06000700010204E5
:0C24EC00081020408020100880402000D4
:00000001FF
