:100000000C9448000C947D000C947D000C947D00B1
:100010000C947D000C947D000C947D000C947D006C
:100020000C947D000C94CC0C0C94750B0C949B0CD4
:100030000C94080C0C94390C0C94440B0C94D70BB6
:100040000C9447080C947D000C94AC010C94F201C4
:100050000C947D000C947D000C947D000C947D002C
:100060000C946A0C0C94900D0C94FD0C0C942E0DB9
:100070000C945F0D0C94A60B0C944B020C94910203
:100080000C947D000C947D000C947D0039041405C3
:1000900011241FBECFEFD0E1DEBFCDBF88E483BF08
:1000A00083B7887F846083BF12BE87B7816087BFB4
:1000B000789411E0A0E0B1E0E4E4F0E200E00BBFEE
:1000C00002C007900D92A037B107D9F712E0A0E760
:1000D000B1E001C01D92A236B107E1F710E0C0E91E
:1000E000D0E004C02297FE010E941C10CC38D1073A
:1000F000C9F70E94C10D0C9420100C940000CF93FE
:10010000DF93EC018A8160E00E9456098D8160E0F6
:100110000E9486098D8160E00E94A8098B8161E0C0
:100120000E9456098C8161E00E945609000000007F
:1001300010C08C8160E00E945609000000000000A1
:1001400000008C8161E00E94560900000000000060
:1001500000008D810E949D0987FDEBCF8C8160E0BE
:100160000E945609DF91CF910895FF920F931F933C
:100170008C01F62E0E947F00F801828161E00E94CE
:100180005609F801838160E00E945609F8018481D4
:1001900061E00E945609F801858161E00E948609AC
:1001A000F80185816F2D0E94A80900000000000061
:1001B0000000F801848160E00E945609F801858101
:1001C00060E00E948609F80185816FEF0E94A8090E
:1001D0001F910F91FF900895EF92FF920F931F933D
:1001E000CF93DF937C01042F6115710551F0EB0172
:1001F00010E005C0C70169910E94B5001F5F10178C
:10020000C8F3DF91CF911F910F91FF90EF90089568
:10021000DF93CF930F92CDB7DEB76983BE016F5FD7
:100220007F4F41E00E94EC000F90CF91DF91089545
:10023000FF920F931F938C01F62E0E947F00F8010E
:10024000828160E00E945609F801838160E00E948B
:100250005609F801848161E00E945609F801858100
:1002600061E00E948609F80185816F2D0E94A8092E
:100270000000000000000000F801848160E00E949E
:100280005609F801858160E00E948609F8018581A0
:100290006FEF0E94A8091F910F91FF9008950F938F
:1002A0001F938C01FC01828160E00E945609F801D5
:1002B000838160E00E945609F801848160E00E9419
:1002C0005609F801828161E00E940D09F8018381DD
:1002D00061E00E940D09F801848161E00E940D092E
:1002E000F801858160E00E948609F80185816FEF41
:1002F0000E94A8091F910F9108950F931F938C01DD
:100300000E944F01C80168E30E941801C80161E022
:100310000E941801C80166E00E941801C8016CE043
:100320000E941801C80162E00E941801C80160E83B
:100330000E9418011F910F9108950F93FC0181E411
:1003400091E0918380836283438324830583CF017B
:100350000E947D010F9108951F920F920FB60F9288
:100360000BB60F9211242F933F938F939F93EF938C
:10037000FF93E091BA01F091BB012081809174015B
:100380009091750180970CF58091740190917501A1
:1003900001969093750180937401809176019091FC
:1003A0007701FC01E059FE4F228701969093770177
:1003B0008093760120917201309173018217930727
:1003C00024F01092770110927601FF91EF919F91A6
:1003D0008F913F912F910F900BBE0F900FBE0F90FA
:1003E0001F9018951F920F920FB60F920BB60F9297
:1003F00011242F933F934F938F939F93AF93BF936A
:10040000EF93FF9380919C0190919D01181619061E
:1004100034F5A091BA01B091BB0180919C019091FB
:100420009D01019790939D0180939C018091A00173
:100430009091A101FC01E059FE4F42A901969093D1
:10044000A1018093A00120919A0130919B01821714
:10045000930724F01092A1011092A0014C93809177
:100460009C0190919D01892B31F4E091B801F091AC
:10047000B90188E98083FF91EF91BF91AF919F917E
:100480008F914F913F912F910F900BBE0F900FBE08
:100490000F901F9018951F920F920FB60F920BB6E8
:1004A0000F9211242F933F938F939F93EF93FF937A
:1004B000E0910602F091070220818091C0019091A5
:1004C000C10180970CF58091C0019091C101019606
:1004D0009093C1018093C0018091C2019091C301AA
:1004E000FC01E454FE4F228701969093C301809350
:1004F000C2012091BE013091BF018217930724F001
:100500001092C3011092C201FF91EF919F918F91C0
:100510003F912F910F900BBE0F900FBE0F901F9029
:1005200018951F920F920FB60F920BB60F921124CF
:100530002F933F934F938F939F93AF93BF93EF93DB
:10054000FF938091E8019091E9011816190634F59E
:10055000A0910602B09107028091E8019091E90113
:1005600001979093E9018093E8018091EC019091CB
:10057000ED01FC01E454FE4F42A901969093ED0178
:100580008093EC012091E6013091E70182179307F7
:1005900024F01092ED011092EC014C938091E8014F
:1005A0009091E901892B31F4E0910402F091050268
:1005B00088E98083FF91EF91BF91AF919F918F91D7
:1005C0004F913F912F910F900BBE0F900FBE0F9048
:1005D0001F9018955F926F927F928F929F92AF9229
:1005E000BF92CF92DF92EF92FF920F931F93CF9320
:1005F000DF93EC013A014B01413482E458078FE06C
:10060000680780E078070CF07FC060E874E88EE14E
:1006100090E0A40193010E94DD0F21503040404042
:100620005040CA01B90122E030E040E050E00E94B1
:10063000DD0F59016A01A60195012095309540957D
:10064000509594E0220F331F441F551F9A95D1F700
:1006500060E074E284EF90E00E94DD0FCA01B9010E
:100660002FEF30E040E050E00E94BE0FA401930164
:100670000E94DD0FC90181509F4F181619061CF406
:10068000522E5A9403C055245394521A60E079E0D4
:100690008DE390E0A40193010E94DD0F21503040D2
:1006A00040405040CA01B90122E030E040E050E053
:1006B0000E94DD0F209530954095509583E0220FE4
:1006C000331F441F551F8A95D1F760E074E284EF11
:1006D00090E00E94DD0FCA01B9012FEF30E040E049
:1006E00050E00E94BE0FA40193010E94DD0FC901DA
:1006F00081509F4F181619061CF4822F815002C09A
:1007000081E0821B8515E8F4CA5BDF4FE881F9813F
:10071000C654D04082E0808360E079E08DE390E0D1
:10072000A40193010E94DD0F215030404040504011
:10073000CA01B90122E030E040E050E00E94DD0F44
:1007400008C0CA5BDF4FE881F981C654D0401082EF
:100750009501CE5BDF4FE991F9913083E881F98112
:1007600020832496E881F98188E98083DF91CF9105
:100770001F910F91FF90EF90DF90CF90BF90AF90BF
:100780009F908F907F906F905F900895FC012481DF
:100790003581C9010895DC01FC0184819581892B93
:1007A00019F42FEF3FEF18C0FD0184819581019767
:1007B0009583848380859185E80FF91F4285019692
:1007C000FD0191878087228133818217930714F07E
:1007D00011861086242F30E0C9010895CF93DF934E
:1007E000DC01EC018C819D81892B19F42FEF3FEF07
:1007F00008C0ED01E885F985EA0FFB1F8285282FE7
:1008000030E0C901DF91CF910895FC011582148277
:100810008481958191878087978386830895DC0101
:10082000FD0184A595A54097DCF7F894FD0184A50A
:1008300095A54097ACF484A595A5019695A784A7A6
:1008400086A597A5E80FF91F62AB0196FD0197A752
:1008500086A722A533A58217930714F017A616A61C
:10086000A85BBF4FED91FC9180818062808378947A
:10087000089567E471E0709371016093700140E244
:1008800050E05093730140937201109275011092E1
:100890007401809174019091750190937901809316
:1008A0007801909377018093760120E130E03093D6
:1008B0009B0120939A0110929D0110929C018091BE
:1008C0009C0190919D019093A1018093A001909330
:1008D0009F0180939E0180E990E09093B301809303
:1008E000B20189E290E09093B5018093B4018BE26C
:1008F00090E09093B7018093B6018AE290E09093E4
:10090000B9018093B8018CE290E09093BB01809391
:10091000BA017093BD016093BC015093BF01409335
:10092000BE011092C1011092C0018091C00190914E
:10093000C1019093C5018093C4019093C30180933A
:10094000C2013093E7012093E6011092E901109271
:10095000E8018091E8019091E9019093ED01809385
:10096000EC019093EB018093EA0188E990E0909389
:10097000FF018093FE0189E990E09093010280934A
:1009800000028BE990E090930302809302028AE9CF
:1009900090E090930502809304028CE990E090939C
:1009A0000702809306020895DF93CF93CDB7DEB799
:1009B0002E970FB6F894DEBF0FBECDBFE981FA8146
:1009C000DF01AA0FBB1FAE0FBF1FBD01660F771F50
:1009D0009B012A0F3B1F2E0F3F1F260F371FBF0102
:1009E00043E0660F771F4A95E1F76E1B7F0B260FDA
:1009F000371F2A0F3B1F280F391F442737FD40950B
:100A0000542FCA01B9010E94CF0E20E030E048ED1A
:100A100051E40E94340E2E960FB6F894DEBF0FBE3E
:100A2000CDBFCF91DF9108950F9388E092E06AE106
:100A30004BE12CE102E00E949D018EE092E00E94D9
:100A4000240780E192E00E94450784E192E00E9441
:100A5000450788E192E00E9445070F9108950F93A2
:100A60001F93CF93DF93FC018B01EA0157FF02C074
:100A7000C0E0D0E060911E0270911F028EE092E013
:100A8000AF010E94F90660910A0170910B018EE09E
:100A900092E0A8010E94F906BE01C53BD10514F001
:100AA00064EB70E080E192E00E944C07DF91CF910F
:100AB0001F910F9108952F923F924F925F926F92E4
:100AC0007F928F929F92AF92BF92CF92DF92EF92DE
:100AD000FF920F931F93CF93DF9382E30E943D0910
:100AE0008823D9F7B1E04B2E512CA6E02A2E312CC9
:100AF000F3E08F2E912CE2E06E2E712C78ECA72E75
:100B0000B12C80911C020E94B3098C0180910401D8
:100B10000E94B309EC0180912002882349F0809162
:100B20002102882329F0709224026092230234C0AB
:100B3000809100010E943D09882329F090922402AF
:100B40008092230229C080910E0190910F0180179D
:100B500091071CF08C179D0784F480912202882352
:100B600029F4509224024092230216C085E090E0BE
:100B700090932402809323020FC0809102010E946F
:100B80003D09882329F0309224022092230204C0D8
:100B90001092240210922302809123029091240249
:100BA0008430910554F48230910574F4009709F46F
:100BB000A6C0019709F0A5CF13C08430910549F074
:100BC000069709F09ECF34C08CE09EEF6CE07EEF7C
:100BD00004C08FEF93E06FEF73E04AE550E0E3C0AD
:100BE000C8010E94D4047B018C01CE010E94D40470
:100BF0009B01AC01C801B7010E94CF0D0E949C0E61
:100C0000882777FD8095982F0E94CF0E20E030E056
:100C100040E050E00E945B0F0E949C0E9B01AC01E3
:100C2000265A3F4F84EF91E064EF71E0A901BBC009
:100C3000C0E0D0E060910C0170910D018EE092E077
:100C400044EF51E00E94F9066AE070E080E090E035
:100C50000E948F082A9691E0C43FD90759F7C0E057
:100C6000D0E060910C0170910D018EE092E04CE0BB
:100C70005EEF0E94F9066AE070E080E090E00E947A
:100C80008F082A9681E0C43FD80759F784E192E0A3
:100C90006AE570E00E944C07C0E0D0E060910C0172
:100CA00070910D018EE092E04CE05EEF0E94F9063B
:100CB0006AE070E080E090E00E948F082A96C83CCD
:100CC000D10561F784E192E060E070E00E944C079A
:100CD000C0E0D0E060910C0170910D018EE092E0D7
:100CE00044EF51E00E94F9066AE070E080E090E095
:100CF0000E948F082A96C83CD10561F702CF8091E7
:100D000006010E94B309EC01809108010E94B30919
:100D1000CB3FD10544F08A3F910584F4C1E0D0E097
:100D20002FEF3FEF0FC0CA3FD10541F08B3F910538
:100D30002CF0C1E0D0E021E030E004C0C0E0D0E021
:100D400020E030E02A9D60012B9DD00C3A9DD00C14
:100D500011248AE590E0C80ED91EB901882777FDD5
:100D60008095982F0E94CF0E20E030E040E050E0C8
:100D70000E945B0F7B018C012196BE01882777FDC5
:100D80008095982F0E94CF0E9B01AC01C801B7013E
:100D90000E94340E0E949C0EC60ED71E84EF91E076
:100DA00064EF71E0A6010E942F05ABCE80E060E009
:100DB0000E94860981E060E00E94860980E192E05D
:100DC00063E270E00E94FE0784E192E06FE170E070
:100DD0000E94FE0788E192E062E270E00E94FE0756
:100DE00080E791E040E855E260E070E00E94EA02AE
:100DF00008950F931F93CF93DF93EB018A01CC0FDC
:100E0000DD1F57FD0CC0FE01EF5AFE4F808161E0EF
:100E10000E945609C75ADE4F8881B8010EC0FE01F4
:100E2000EF5AFE4F808160E00E945609C75ADE4F9C
:100E300066277727601B710B88810E94760ADF91F5
:100E4000CF911F910F9108951F93CF93DF93C0E02F
:100E5000D0E0FE01EF5AFE4F1081812F61E00E9429
:100E60000D09812F61E00E945609FE01E75AFE4FED
:100E7000808160E070E00E94760A2296C830D10539
:100E800041F7DF91CF911F910895FC0110828AE014
:100E900090E0938382830895CF93DF93EC018827BA
:100EA00077FD8095982F0E94CF0E20E030E044E33C
:100EB00053E40E94340E20E030E040EF51E40E9401
:100EC0005B0F20E030E040E251E40E94D00D0E9430
:100ED000A10ECB016A30710510F48AE090E08932EE
:100EE000910510F088E290E09B838A83DF91CF9197
:100EF0000895E0911001E7FD15C0FF27E7FDF0958B
:100F0000EE0FFF1FEB5DFD4F0190F081E02D818121
:100F100060E00E94560906C02F5F81919191892B54
:100F200069F00EC0209110012F5FE22FFF27E7FD2F
:100F3000F0952150EE0FFF1FEB5DFD4F273064F35E
:100F400020931001E0911001FF27E7FDF095EE0FCF
:100F5000FF1FEB5DFD4F0190F081E02D309761F4B4
:100F60008FEF8093100124EF31E080913602909151
:100F70003702281B390B12C0818161E00E9456099B
:100F8000E0911001FF27E7FDF095EE0FFF1FEB5DED
:100F9000FD4F0190F081E02D2281338183B5820FD6
:100FA00083BD8091360290913702820F931F9093F8
:100FB000370280933602845F914020F0109237020E
:100FC0001092360208950E94190A87B78F7787BF5B
:100FD00085E00E94220A89E069E777E00E94270AFB
:100FE00083B58C5083BD87B7806887BF1092370266
:100FF000109236028FEF809310010895CF93DF9304
:10100000EC0180913502893010F080E03DC06983A9
:10101000862F61E00E940D09E881F0E0EE0FFF1FCE
:10102000EB5DFD4F80819181C817D90761F1409137
:101030003502442341F4E5E2F2E01192119282E09C
:10104000E533F807D1F7E5E2F2E020E030E0808117
:101050009181892B61F4F901EE0FFF1FEB5DFD4FCC
:10106000D183C08328834F5F4093350206C02F5F32
:101070003F4F32962830310551F78091350281304B
:1010800011F40E94E30781E0DF91CF9108951F9250
:101090000F920FB60F9211242F933F938F939F932C
:1010A000AF93BF9380913C0290913D02A0913E028C
:1010B000B0913F02309140020196A11DB11D232F36
:1010C0002D5F2D3720F02D570196A11DB11D2093C6
:1010D000400280933C0290933D02A0933E02B09365
:1010E0003F028091380290913902A0913A02B0916A
:1010F0003B020196A11DB11D8093380290933902E5
:10110000A0933A02B0933B02BF91AF919F918F9110
:101110003F912F910F900FBE0F901F901895AF9297
:10112000BF92CF92DF92EF92FF920F931F935B01DA
:101130006C019FB7F89420913802309139024091A8
:101140003A0250913B0282B7E82EFF2400E010E003
:1011500006B600FE0AC08FEFE816F104010511057E
:1011600021F02F5F3F4F4F4F5F4F9FBFB42FA32FF3
:10117000922F88278E0D9F1DA01FB11F12E0880F90
:10118000991FAA1FBB1F1A95D1F7BC0138C09FB782
:10119000F894209138023091390240913A025091EE
:1011A0003B0282B7E82EFF2400E010E006B600FE06
:1011B0000AC08FEFE816F1040105110521F02F5F39
:1011C0003F4F4F4F5F4F9FBFB42FA32F922F8827C2
:1011D0008E0D9F1DA01FB11FE2E0880F991FAA1F4F
:1011E000BB1FEA95D1F7861B970B885E934078F278
:1011F0000894A108B108C108D10868517C4FA11416
:10120000B104C104D10419F61F910F91FF90EF9022
:10121000DF90CF90BF90AF900895E82FE695E695C8
:10122000E695A82FB0E0613099F42FB7F894F0E07C
:10123000EE0FFF1FE15EFE4F0190F081E02D9081E7
:10124000A770B070AF59BE4F8C91982B908313C08C
:101250002FB7F894F0E0EE0FFF1FE15EFE4F019014
:10126000F081E02D9081A770B070AF59BE4F8C9186
:101270008095892380832FBF0895A82FE82FE695B6
:10128000E695E695F0E0EE0FFF1FE35DFE4F01905F
:10129000F081E02DE081B0E0A770B070AF59BE4F93
:1012A0008C91E82309F0E1E08E2F0895E82FE69570
:1012B000E695E695A82FB0E0613099F42FB7F89441
:1012C000F0E0EE0FFF1FEF5EFE4F0190F081E02D8A
:1012D0009081A770B070AF59BE4F8C91982B9083BE
:1012E00013C02FB7F894F0E0EE0FFF1FEF5EFE4F34
:1012F0000190F081E02D9081A770B070AF59BE4F82
:101300008C918095892380832FBF0895E82FF0E08A
:10131000613051F4EE0FFF1FE15EFE4F0190F0814E
:10132000E02D8FEF80830895EE0FFF1FE15EFE4FEB
:101330000190F081E02D10820895E82FF0E0EE0F8B
:10134000FF1FE35DFE4F0190F081E02D8081089545
:10135000E82FF0E0EE0FFF1FEF5EFE4F0190F081EF
:10136000E02D60830895982F80913B01813051F4E6
:10137000109261001092620080E487B987EE86B90E
:1013800010923B0180913C01981721F4349A349BD0
:10139000FECF0DC090933C0187B19770807E892B62
:1013A00087B9349A349BFECF349A349BFECF24B154
:1013B00035B1C9010895853031F48FB580688FBD8E
:1013C0008FB58F7B0FC0843031F48FB580628FBDB5
:1013D0008FB58F7E07C0833039F48FB588608FBD9D
:1013E0008FB58B7F8FBD0895823049F480918B003B
:1013F000806880938B0080918B008F7B0AC0813046
:1014000059F480918B00806280938B0080918B00D7
:101410008F7E80938B000895882351F480918B00F8
:10142000886080938B0080918B008B7F80938B00F2
:10143000089585B5887F826085BD14BC87B78064B8
:1014400087BF089595B5987F982B95BD08958031F5
:1014500040F4E82FF0E0EE0FFF1FEE5BFD4F7183CD
:1014600060830895893031F48FB582608FBD8FB568
:101470008E7F0AC08A3019F48FB5826002C08FB5A2
:101480008D7F8FBD8FB581608FBD1BBC1ABC19BC11
:1014900018BC10927900109278000895893049F4B0
:1014A00080918B00826080938B0080918B008E7F77
:1014B0000EC08A3021F480918B00826003C080913D
:1014C0008B008D7F80938B0080918B008160809357
:1014D0008B00109287001092860010928500109267
:1014E000840010928300109282000895FF920F935F
:1014F0001F93CF93DF93182FF62E072F8D31B0F067
:101500008F3111F413E014C08E3111F414E010C0C7
:101510008D3109F4B1C0853211F410E044C0843239
:1015200011F411E040C0833219F4A4C08330D8F123
:101530008091410286FD12C08EB5887F83608EBD8A
:101540001DBC1CBC87B7846087BF78948AE00E946A
:10155000320A80914102806480934102809141026D
:10156000C12FD0E090E0012E02C0959587950A9496
:10157000E2F780FD59C087B3FE01E759FE4F908125
:10158000892B87BB812F0E94DB092091410281E0DA
:1015900090E0012E02C0880F991F0A94E2F7282BD1
:1015A0002093410241C08091410287FD18C0809183
:1015B0008A00887F836080938A001092890010924D
:1015C000880080917D00846080937D0078948AE01B
:1015D0000E944E0A8091410280688093410280916E
:1015E0004102C12FD0E090E0012E02C09595879571
:1015F0000A94E2F780FD22C082B1FE01E759FE4F56
:101600009081892B82B9812F0E94DB0920914102B0
:1016100081E090E0012E02C0880F991F0A94E2F742
:10162000282B209341020AC0153019F40BBDFABCD7
:1016300025C0143019F409BDF8BC20C0133029F4BA
:1016400000937900F092780019C0123029F40093C9
:101650008700F092860012C0113029F400938500B3
:10166000F09284000BC0112349F400938300F092A0
:10167000820004C012E097CF15E05ACFDF91CF91DE
:101680001F910F91FF9008951F920F920FB60F9226
:101690000BB60F9211242F933F934F935F936F9349
:1016A0007F938F939F93AF93BF93EF93FF9380911B
:1016B000480290914902892B29F0E0914802F0916B
:1016C00049020995FF91EF91BF91AF919F918F9141
:1016D0007F916F915F914F913F912F910F900BBE32
:1016E0000F900FBE0F901F9018951F920F920FB67C
:1016F0000F920BB60F9211242F933F934F935F934A
:101700006F937F938F939F93AF93BF93EF93FF93C9
:101710008091520290915302892B29F0E09152025C
:10172000F09153020995FF91EF91BF91AF919F9175
:101730008F917F916F915F914F913F912F910F907A
:101740000BBE0F900FBE0F901F9018951F920F9217
:101750000FB60F920BB60F9211242F933F934F9316
:101760005F936F937F938F939F93AF93BF93EF9309
:10177000FF938091580290915902892B29F0E091B2
:101780005802F09159020995FF91EF91BF91AF91E5
:101790009F918F917F916F915F914F913F912F9189
:1017A0000F900BBE0F900FBE0F901F9018951F92B9
:1017B0000F920FB60F920BB60F9211242F933F93F7
:1017C0004F935F936F937F938F939F93AF93BF9349
:1017D000EF93FF938091440290914502892B29F069
:1017E000E0914402F09145020995FF91EF91BF917C
:1017F000AF919F918F917F916F915F914F913F91A9
:101800002F910F900BBE0F900FBE0F901F90189549
:101810001F920F920FB60F920BB60F9211242F93B7
:101820003F934F935F936F937F938F939F93AF9368
:10183000BF93EF93FF9380914A0290914B02892BC3
:1018400029F0E0914A02F0914B020995FF91EF9146
:10185000BF91AF919F918F917F916F915F914F91C8
:101860003F912F910F900BBE0F900FBE0F901F90C6
:1018700018951F920F920FB60F920BB60F9211246C
:101880002F933F934F935F936F937F938F939F9388
:10189000AF93BF93EF93FF9380914C0290914D02D1
:1018A000892B29F0E0914C02F0914D020995FF91AE
:1018B000EF91BF91AF919F918F917F916F915F91C8
:1018C0004F913F912F910F900BBE0F900FBE0F9035
:1018D0001F9018951F920F920FB60F920BB60F9292
:1018E00011242F933F934F935F936F937F938F9325
:1018F0009F93AF93BF93EF93FF9380914E0290918C
:101900004F02892B29F0E0914E02F0914F02099588
:10191000FF91EF91BF91AF919F918F917F916F91C7
:101920005F914F913F912F910F900BBE0F900FBE83
:101930000F901F9018951F920F920FB60F920BB633
:101940000F9211242F933F934F935F936F937F9345
:101950008F939F93AF93BF93EF93FF938091500228
:1019600090915102892B29F0E0915002F09151029F
:101970000995FF91EF91BF91AF919F918F917F91C9
:101980006F915F914F913F912F910F900BBE0F90F0
:101990000FBE0F901F9018951F920F920FB60F92C7
:1019A0000BB60F9211242F933F934F935F936F9336
:1019B0007F938F939F93AF93BF93EF93FF93809108
:1019C000540290915502892B29F0E0915402F09134
:1019D00055020995FF91EF91BF91AF919F918F9122
:1019E0007F916F915F914F913F912F910F900BBE1F
:1019F0000F900FBE0F901F9018951F920F920FB669
:101A00000F920BB60F9211242F933F934F935F9336
:101A10006F937F938F939F93AF93BF93EF93FF93B6
:101A200080915A0290915B02892B29F0E0915A0231
:101A3000F0915B020995FF91EF91BF91AF919F915A
:101A40008F917F916F915F914F913F912F910F9067
:101A50000BBE0F900FBE0F901F9018951F920F9204
:101A60000FB60F920BB60F9211242F933F934F9303
:101A70005F936F937F938F939F93AF93BF93EF93F6
:101A8000FF9380915C0290915D02892B29F0E09197
:101A90005C02F0915D020995FF91EF91BF91AF91CA
:101AA0009F918F917F916F915F914F913F912F9176
:101AB0000F900BBE0F900FBE0F901F9018951F92A6
:101AC0000F920FB60F920BB60F9211242F933F93E4
:101AD0004F935F936F937F938F939F93AF93BF9336
:101AE000EF93FF9380915E0290915F02892B29F022
:101AF000E0915E02F0915F020995FF91EF91BF9135
:101B0000AF919F918F917F916F915F914F913F9195
:101B10002F910F900BBE0F900FBE0F901F90189536
:101B20001F920F920FB60F920BB60F9211242F93A4
:101B30003F934F935F936F937F938F939F93AF9355
:101B4000BF93EF93FF938091600290916102892B84
:101B500029F0E0916002F09161020995FF91EF9107
:101B6000BF91AF919F918F917F916F915F914F91B5
:101B70003F912F910F900BBE0F900FBE0F901F90B3
:101B8000189583E061E00E94860984E061E00E948C
:101B9000860978940E94D6060E945B05FDCF5058B6
:101BA000BB27AA270ED04DC13ED130F043D120F043
:101BB00031F49F3F11F41EF433C10EF4E095E7FBBE
:101BC00029C1E92F4FD180F3BA1762077307840741
:101BD000950718F071F49EF567C10EF4E0950B2E91
:101BE000BA2FA02D0B01B90190010C01CA01A0016F
:101BF0001124FF27591B99F0593F50F4503E68F1CA
:101C00001A16F040A22F232F342F4427585FF3CF0A
:101C1000469537952795A795F0405395C9F77EF4DB
:101C20001F16BA0B620B730B840BBAF09150A1F024
:101C3000FF0FBB1F661F771F881FC2F70EC0BA0FAA
:101C4000621F731F841F48F4879577956795B79532
:101C5000F7959E3F08F0B3CF9395880F08F099272A
:101C6000EE0F9795879508950CD0EBC0E3D040F028
:101C7000DAD030F021F45F3F19F0CCC0511115C11A
:101C8000CFC0F0D098F39923C9F35523B1F3951B36
:101C9000550BBB27AA2762177307840738F09F5F8D
:101CA0005F4F220F331F441FAA1FA9F333D00E2EFC
:101CB0003AF0E0E830D091505040E695001CCAF769
:101CC00029D0FE2F27D0660F771F881FBB1F26172E
:101CD00037074807AB07B0E809F0BB0B802DBF0101
:101CE000FF2793585F4F2AF09E3F510568F092C03E
:101CF000DCC05F3FECF3983EDCF386957795679503
:101D0000B795F7959F5FC9F7880F911D96958795B1
:101D100097F90895E1E0660F771F881FBB1F6217D0
:101D200073078407BA0720F0621B730B840BBA0B8E
:101D3000EE1F88F7E095089504D06894B111B5C0FE
:101D4000089598D088F09F5790F0B92F9927B751F0
:101D5000A0F0D1F0660F771F881F991F1AF0BA956F
:101D6000C9F712C0B13081F09FD0B1E008959CC096
:101D7000672F782F8827B85F39F0B93FCCF3869565
:101D800077956795B395D9F73EF4909580957095C2
:101D900061957F4F8F4F9F4F0895E89409C097FB3F
:101DA0003EF490958095709561957F4F8F4F9F4F32
:101DB0009923A9F0F92F96E9BB279395F695879576
:101DC00077956795B795F111F8CFFAF4BB0F11F439
:101DD00060FF1BC06F5F7F4F8F4F9F4F16C08823E0
:101DE00011F096E911C0772321F09EE8872F762F16
:101DF00005C0662371F096E8862F70E060E02AF057
:101E00009A95660F771F881FDAF7880F9695879542
:101E100097F9089597F99F6780E870E060E008956A
:101E20009FEF80EC089500240A94161617061806F2
:101E30000906089500240A941216130614060506CE
:101E40000895092E0394000C11F4882352F0BB0F5F
:101E500040F4BF2B11F460FF04C06F5F7F4F8F4FC2
:101E60009F4F089557FD9058440F551F59F05F3FFD
:101E700071F04795880F97FB991F61F09F3F79F0AC
:101E800087950895121613061406551FF2CF46952E
:101E9000F1DF08C0161617061806991FF1CF8695B0
:101EA0007105610508940895E894BB276627772794
:101EB000CB0197F908950BD0C4CFB5DF28F0BADF76
:101EC00018F0952309F0A6CFABCF1124EECFCADFCF
:101ED000A0F3959FD1F3950F50E0551F629FF0013D
:101EE000729FBB27F00DB11D639FAA27F00DB11D96
:101EF000AA1F649F6627B00DA11D661F829F22271F
:101F0000B00DA11D621F739FB00DA11D621F839FA5
:101F1000A00D611D221F749F3327A00D611D231F7B
:101F2000849F600D211D822F762F6A2F11249F57C9
:101F300050408AF0E1F088234AF0EE0FFF1FBB1FEC
:101F4000661F771F881F91505040A9F79E3F51058B
:101F500070F060CFAACF5F3FECF3983EDCF386953C
:101F600077956795B795F795E7959F5FC1F7FE2B36
:101F7000880F911D9695879597F90895629FD001D6
:101F8000739FF001829FE00DF11D649FE00DF11D34
:101F9000929FF00D839FF00D749FF00D659FF00DE3
:101FA0009927729FB00DE11DF91F639FB00DE11DD0
:101FB000F91FBD01CF011124089597FB092E0526B5
:101FC0000ED057FD04D014D00AD0001C38F4509520
:101FD0004095309521953F4F4F4F5F4F0895F6F74D
:101FE00090958095709561957F4F8F4F9F4F089585
:101FF000A1E21A2EAA1BBB1BFD010DC0AA1FBB1F0D
:10200000EE1FFF1FA217B307E407F50720F0A21B7E
:10201000B30BE40BF50B661F771F881F991F1A94EB
:1020200069F760957095809590959B01AC01BD0115
:10203000CF010895EE0FFF1F0590F491E02D099454
:04204000F894FFCF42
:102044000300040001000200030001000200640018
:10205400FF320035003B0038002300620065003188
:102064000034003A0037002200610064003000337D
:10207400003900360021002000630001FF00000049
:10208400000801000000000F04C603EE03CB0305A3
:1020940004180019002600270005000400010000B0
:1020A4000001020408102040802010088040200015
:00000001FF
